{
  "contractName": "FarmerRole",
  "abi": [
    {
      "inputs": [],
      "payable": false,
      "stateMutability": "nonpayable",
      "type": "constructor"
    },
    {
      "anonymous": false,
      "inputs": [
        {
          "indexed": true,
          "name": "account",
          "type": "address"
        }
      ],
      "name": "FarmerAdded",
      "type": "event"
    },
    {
      "anonymous": false,
      "inputs": [
        {
          "indexed": true,
          "name": "account",
          "type": "address"
        }
      ],
      "name": "FarmerRemoved",
      "type": "event"
    },
    {
      "constant": true,
      "inputs": [
        {
          "name": "account",
          "type": "address"
        }
      ],
      "name": "isFarmer",
      "outputs": [
        {
          "name": "",
          "type": "bool"
        }
      ],
      "payable": false,
      "stateMutability": "view",
      "type": "function"
    },
    {
      "constant": false,
      "inputs": [
        {
          "name": "account",
          "type": "address"
        }
      ],
      "name": "addFarmer",
      "outputs": [],
      "payable": false,
      "stateMutability": "nonpayable",
      "type": "function"
    },
    {
      "constant": false,
      "inputs": [],
      "name": "renounceFarmer",
      "outputs": [],
      "payable": false,
      "stateMutability": "nonpayable",
      "type": "function"
    }
  ],
  "bytecode": "0x608060405234801561001057600080fd5b506100293361002e640100000000026401000000009004565b6101e8565b61004f81600061009564010000000002610331179091906401000000009004565b8073ffffffffffffffffffffffffffffffffffffffff167f2e0ded4123377a3c2bc9a26f1717655a129e2f20752924d42e730ec89c83dbd060405160405180910390a250565b600073ffffffffffffffffffffffffffffffffffffffff168173ffffffffffffffffffffffffffffffffffffffff16141515156100d157600080fd5b6100ea8282610154640100000000026401000000009004565b1515156100f657600080fd5b60018260000160008373ffffffffffffffffffffffffffffffffffffffff1673ffffffffffffffffffffffffffffffffffffffff16815260200190815260200160002060006101000a81548160ff0219169083151502179055505050565b60008073ffffffffffffffffffffffffffffffffffffffff168273ffffffffffffffffffffffffffffffffffffffff161415151561019157600080fd5b8260000160008373ffffffffffffffffffffffffffffffffffffffff1673ffffffffffffffffffffffffffffffffffffffff16815260200190815260200160002060009054906101000a900460ff16905092915050565b6104bc806101f76000396000f300608060405260043610610057576000357c0100000000000000000000000000000000000000000000000000000000900463ffffffff16806380c3f96d1461005c57806380fc0ce41461009f578063b9429069146100b6575b600080fd5b34801561006857600080fd5b5061009d600480360381019080803573ffffffffffffffffffffffffffffffffffffffff169060200190929190505050610111565b005b3480156100ab57600080fd5b506100b46101c1565b005b3480156100c257600080fd5b506100f7600480360381019080803573ffffffffffffffffffffffffffffffffffffffff1690602001909291905050506101cc565b604051808215151515815260200191505060405180910390f35b61011a336101cc565b1515156101b5576040517f08c379a00000000000000000000000000000000000000000000000000000000081526004018080602001828103825260238152602001807f4661726d657220636f756c64206e6f742063616c6c20746869732066756e637481526020017f696f6e000000000000000000000000000000000000000000000000000000000081525060400191505060405180910390fd5b6101be816101e9565b50565b6101ca33610243565b565b60006101e282600061029d90919063ffffffff16565b9050919050565b6101fd81600061033190919063ffffffff16565b8073ffffffffffffffffffffffffffffffffffffffff167f2e0ded4123377a3c2bc9a26f1717655a129e2f20752924d42e730ec89c83dbd060405160405180910390a250565b6102578160006103e190919063ffffffff16565b8073ffffffffffffffffffffffffffffffffffffffff167fa5e0f060af304ab17dd418c7927e3da3ae7868189bf387aee09ab179ccc572f260405160405180910390a250565b60008073ffffffffffffffffffffffffffffffffffffffff168273ffffffffffffffffffffffffffffffffffffffff16141515156102da57600080fd5b8260000160008373ffffffffffffffffffffffffffffffffffffffff1673ffffffffffffffffffffffffffffffffffffffff16815260200190815260200160002060009054906101000a900460ff16905092915050565b600073ffffffffffffffffffffffffffffffffffffffff168173ffffffffffffffffffffffffffffffffffffffff161415151561036d57600080fd5b610377828261029d565b15151561038357600080fd5b60018260000160008373ffffffffffffffffffffffffffffffffffffffff1673ffffffffffffffffffffffffffffffffffffffff16815260200190815260200160002060006101000a81548160ff0219169083151502179055505050565b600073ffffffffffffffffffffffffffffffffffffffff168173ffffffffffffffffffffffffffffffffffffffff161415151561041d57600080fd5b610427828261029d565b151561043257600080fd5b60008260000160008373ffffffffffffffffffffffffffffffffffffffff1673ffffffffffffffffffffffffffffffffffffffff16815260200190815260200160002060006101000a81548160ff02191690831515021790555050505600a165627a7a72305820c29a4a6c989c716b7754e40e31a2d1809d44237313daf72b6e540f319f2936cf0029",
  "source": "pragma solidity ^0.4.24;\r\n\r\n// Import the library 'Roles'\r\nimport \"./Roles.sol\";\r\n\r\n// Define a contract 'FarmerRole' to manage this role - add, remove, check\r\ncontract FarmerRole {\r\n  using Roles for Roles.Role;\r\n\r\n  // Define 2 events, one for Adding, and other for Removing\r\n  event FarmerAdded(address indexed account);\r\n  event FarmerRemoved(address indexed account);\r\n\r\n  // Define a struct 'farmers' by inheriting from 'Roles' library, struct Role\r\n  Roles.Role private farmers;\r\n\r\n  // In the constructor make the address that deploys this contract the 1st farmer\r\n  constructor() public {\r\n    _addFarmer(msg.sender);\r\n  }\r\n\r\n  // Define a modifier that checks to see if msg.sender has the appropriate role\r\n  modifier onlyFarmer() {\r\n    require(isFarmer(msg.sender), \"Only farmer could call this function\");\r\n    _;\r\n  }\r\n\r\n  modifier notFarmer() {\r\n    require(!isFarmer(msg.sender), \"Farmer could not call this function\");\r\n    _;\r\n  }\r\n\r\n  // Define a function 'isFarmer' to check this role\r\n  function isFarmer(address account) public view returns (bool) {\r\n    return farmers.has(account);\r\n  }\r\n\r\n  // Define a function 'addFarmer' that adds this role\r\n  function addFarmer(address account) public notFarmer() {\r\n    _addFarmer(account);\r\n  }\r\n\r\n  // Define a function 'renounceFarmer' to renounce this role\r\n  function renounceFarmer() public {\r\n    _removeFarmer(msg.sender);\r\n  }\r\n\r\n  // Define an internal function '_addFarmer' to add this role, called by 'addFarmer'\r\n  function _addFarmer(address account) internal {\r\n    farmers.add(account);\r\n    emit FarmerAdded(account);\r\n  }\r\n\r\n  // Define an internal function '_removeFarmer' to remove this role, called by 'removeFarmer'\r\n  function _removeFarmer(address account) internal {\r\n    farmers.remove(account);\r\n    emit FarmerRemoved(account);\r\n  }\r\n}",
  "sourcePath": "C:\\Users\\andrewchan88\\Documents\\Coding\\udacity\\Blockchain\\PartB\\homework\\project6_es\\contracts\\coffeeaccesscontrol\\FarmerRole.sol",
  "compiler": {
    "name": "solc",
    "version": "0.4.25+commit.59dbf8f1.Emscripten.clang"
  },
  "schemaVersion": "2.0.2",
  "updatedAt": "2019-07-20T17:48:42.085Z"
}